:100000000C948F070C94C7070C94C7070C94BC2C56
:100010000C94C7070C94C7070C94C7070C94C70728
:100020000C94C7070C94C7070C94BA160C94D91AF1
:100030000C94FF250C94C7070C94C7070C94C707B2
:100040000C94C7070C94C7070C94C7070C94C707F8
:100050000C94C7070C9493170C94C7070C94C7070C
:100060000C94C7070C94C7070C94C7070C94C707D8
:100070000C94C7070C94C7070C94C7070C94C707C8
:100080000C94C7070C94C7070C94C7070C94C707B8
:100090000C94C7070C94C7070C94C7070C94C707A8
:1000A0000C94C7070C94C7070C94C7070000000006
:1000B00000000000000000002B0014001A000800DF
:1000C00015001700000004001600070009340A217B
:1000D00000001D001B000600190005000000E200E2
:1000E000E300A2222C422A000000000000000000D1
:1000F000000000001E02130012000C0018001C007B
:1001000038022A000F000E000D380B002900E7000E
:1001100037003600100011000000340033003800B2
:1001200028412921007C010001000100010001009B
:10013000010001003402350034001F0201002102D9
:100140003600330033023700010001002E022D007B
:100150002D022E0000007B007C007D0001000100CC
:100160000100010001000100010001000100010087
:100170002502270226023102240235023100300214
:100180002F02380001002002230230002F0022023B
:10019000000001000100010001000100007C0100DD
:1001A0000100010001000100010001001E001F000C
:1001B000200001000100010021002200230027008F
:1001C00001000100240025002600010000000100BC
:1001D0000100010001000100010001000100010017
:1001E0000100010001000100010001000100010007
:1001F000010001004F0052005100500001000100B9
:1002000001000100010001000000010001000100E7
:1002100001000100000000000000000000000000DC
:10022000000014081A080000000017080000000071
:1002300000007B007C007D0000000000000000004A
:10024000000000000000000000002A00280000005C
:10025000000000000000000000000000000000009E
:10026000000000000000000000000000000000008E
:10027000000000000000000000000000000000007E
:1002800000000000000000000000000000DA028111
:10029000FFD9F1DB20A4A62EAF00A0C000A1C800AA
:1002A000AED580A81FD300408D14200000000000B0
:1002B00000000000FCFC183060E0C080000000007E
:1002C000000000000000000000000000000000002E
:1002D000000000000000000000000000000000001E
:1002E000000000000000000000000000000000808E
:1002F0008080C0C0C0C0C0C0C0C0C0C0C0C0C0C07E
:10030000C0C0C0C0C0C0C0C0C0C0C0C0C0C0C0C0ED
:10031000C0C0C0C00000000000C0C0C0C0C0C0C09D
:10032000C0C0C0C8F8F0C00000000000000000001D
:10033000020202020F0F0202020203030302000084
:1003400000000000000000000000000000000000AD
:10035000000000000000000000000000000000009D
:100360000000000000000000000000F0FC0E070389
:10037000010100000000000000000000000000007B
:10038000000000000000000000000000000000006D
:10039000000000000000000000000000000000005D
:1003A000000000000000000000000000000000004D
:1003B000F0700000000000C0C0C08000F0F000003D
:1003C000000000000000000000000000000000002D
:1003D000000000000000000000000000000000001D
:1003E000000000000000000000000001000000000C
:1003F00000000000000000000000000000000000FD
:1004000000000000000000000000000000000000EC
:10041000000000000000000000F8F060E0C0800074
:10042000000000001870E000000000000000000064
:1004300003070C0C0C0C0C0703010307070F00004B
:1004400000000000000000000000000000000000AC
:10045000000000000000000000000000000000009C
:10046000000000000000000000000000000000008C
:10047000000000000000000000000000000000007C
:10048000000000000000000000000000000000006C
:100490000000000000000000000F0F000001030733
:1004A000060C0C0C0C07030000000000000000000C
:1004B00000000000FCFC183060E0C080000000007C
:1004C000000000000000000000000000000000002C
:1004D000000000000000000000000000000000001C
:1004E000000000000000000000000000000000000C
:1004F00000000000000000000000000000000000FC
:1005000000000000000000000000000000000000EB
:10051000000000000000000000C0C0C0C0C0C0C09B
:10052000C0C0C0C8F8F0C00000000000000000001B
:10053000020202020F0F0202020203030302000082
:1005400000000000000000000000000000000000AB
:10055000000000000000000000000000000000009B
:10056000000000000000000000000080000000000B
:10057000000000000000000000000000000000007B
:10058000000000000000000000000000000000006B
:10059000000000000000000000000000000000005B
:1005A000000000000000000000000000000000004B
:1005B000F0700000000000C0C0C08000F0F000003B
:1005C000000000000000000000000000000000002B
:1005D000000000000000000000000000000000001B
:1005E00000000000000000000000000F3F70E0C0AD
:1005F00080800000000000000000000000000000FB
:1006000000000000000000000000000000000000EA
:10061000000000000000000000F8F060E0C0800072
:10062000000000001870E000000000000000000062
:1006300003070C0C0C0C0C0703010307070F000049
:1006400000000000000000000000000000000000AA
:10065000000000000000000000000000000000009A
:100660000000000000000000000000000000000189
:10067000010103030303030303030303030303034E
:10068000030303030303030303030303030303033A
:100690000303030300000000000F0F000001030725
:1006A000060C0C0C0C07030000000000000000000A
:1006B00000000000FCFC183060E0C080000000007A
:1006C000000000000000000000000000000000002A
:1006D000000000000000000000000000000000001A
:1006E000000000000000000000000000000000000A
:1006F00000000000000000000000000000000000FA
:1007000000000000000000000000000000000000E9
:10071000000000000000000000C0C0C0C0C0C0C099
:10072000C0C0C0C8F8F0C000000000000000000019
:10073000020202020F0F0202020203030302000080
:1007400000000000000000000000000000000000A9
:100750000000000000000000000000000000000099
:100760000000000000000000000080C00000000049
:100770000000000000000000000000000000000079
:100780000000000000000000000000000000000069
:100790000000000000000000000000000000000059
:1007A0000000000000000000000000000000000049
:1007B000F0700000000000C0C0C08000F0F0000039
:1007C00000000080808080808080808080808080A9
:1007D0008080808080808080808080808080808019
:1007E0008080808080C0C0E070381F07000000005B
:1007F00000000000000000000000000000000000F9
:1008000000000000000000000000000000000000E8
:10081000000000000000000000F8F060E0C0800070
:10082000000000001870E000000000000000000060
:1008300003070C0C0C0C0C0703010307070F000047
:10084000000000010101010101010101010101019B
:100850000101010101010101010101010101010188
:100860000101010101000000000000000000000083
:100870000000000000000000000000000000000078
:100880000000000000000000000000000000000068
:100890000000000000000000000F0F00000103072F
:1008A000060C0C0C0C070300000000000000000008
:1008B00000000000FCFC183060E0C0800000000078
:1008C000000000C0C0C0C0C0C0C0C0C0C0C0C0C068
:1008D000C0C0C0C0C0C0C0C0C0C0C0C0C0C0C0C018
:1008E000C0C0C0C0C08080800000000000000000C8
:1008F00000000000000000000000000000000000F8
:1009000000000000000000000000000000000000E7
:10091000000000000000000000C0C0C0C0C0C0C097
:10092000C0C0C0C8F8F0C000000000000000000017
:10093000020202020F0F020202020303030200007E
:1009400000000000000000000000000000000000A7
:100950000000000000000000000000000000000097
:100960000000000000010103070EFCF00000000081
:100970000000000000000000000000000000000077
:100980000000000000000000000000000000000067
:100990000000000000000000000000000000000057
:1009A0000000000000000000000000000000000047
:1009B000F0700000000000C0C0C08000F0F0000037
:1009C0000000000000000000000000000000000027
:1009D0000000000000000000000000000000000017
:1009E0000000000000000000000000010000000006
:1009F00000000000000000000000000000000000F7
:100A000000000000000000000000000000000000E6
:100A1000000000000000000000F8F060E0C080006E
:100A2000000000001870E00000000000000000005E
:100A300003070C0C0C0C0C0703010307070F000045
:100A400000000000000000000000000000000000A6
:100A50000000000000000000000000000000000096
:100A60000000000000000000000000000000000086
:100A70000000000000000000000000000000000076
:100A80000000000000000000000000000000000066
:100A90000000000000000000000F0F00000103072D
:100AA000060C0C0C0C070300000000000000000006
:100AB00000000000C0C000000000000000000000B6
:100AC0000000000000000000C0C0000000000000A6
:100AD0000000000000000000000000000000000016
:100AE0000000000000000000000000000000000006
:100AF00000000000000000000000000000000000F6
:100B000000000000000000000000000000000000E5
:100B1000000000000080C0C0C06060606060C0C0B5
:100B2000C080000000000000000000000000000085
:100B300000000000FFFF00000000F0F000000000D7
:100B40000000F0F0E0000000FFFF000000E0F0F027
:100B5000000000000000F0F00000000000000000B5
:100B60000000000000000000000000000000000085
:100B70000000000000000000000000000000000075
:100B80000000000000000000000000000000000065
:100B900000F0FC1E07030100000080C08000000080
:100BA0000103070EFCF00000000000000000000040
:100BB00000000000FFFF000000007FFFE0C0808019
:100BC000C0C0FFFF1F000000FFFF0000001FFFFF6D
:100BD000C0C080C0C0E0FF7F000000000000000037
:100BE0000000000000000000000000000000000005
:100BF00000000000000000000000000000000000F5
:100C000000000000000000000000000000000000E4
:100C100000071F78E0C08080000000010100008014
:100C200080C0E0783F0F00000000000000000000DE
:100C300000000000010100000000000001010101AE
:100C4000010101000000000001010000000000019E
:100C5000010101010101000000000000000000008E
:100C60000000000000000000000000000000000084
:100C70000000000000000000000000000000000074
:100C80000000000000000000000000000000000064
:100C90000000000000010103030303030303030337
:100CA000010100000000000000000000000101013F
:100CB0000101010101010202020202020202020319
:100CC00003030303030303040404040404040505E9
:100CD00005050506060606060707070707080808AC
:100CE00008090909090A0A0A0B0B0B0C0C0C0D0D5B
:100CF0000D0E0E0E0F0F0F101011111112121313F3
:100D00001414151516161717181819191A1A1B1B6B
:100D10001C1D1D1E1E1F20202122222324242526C7
:100D200026272829292A2B2C2D2D2E2F30313232FF
:100D3000333435363738393A3B3C3D3E3F4041420B
:100D4000434445464748494A4C4D4E4F50515354F1
:100D5000555658595A5B5D5E5F61626465666869A5
:100D60006B6C6D6F7072737577787A7B7D7E808225
:100D7000838587888A8C8E8F91939596989A9C9E6E
:100D8000A0A2A3A5A7A9ABADAFB1B3B5B7BABCBE7E
:100D9000C0C2C4C6C9CBCDCFD1D4D6D8DBDDDFE24B
:100DA000E4E7E9EBEEF0F3F5F8FAFDFF00AF00AE93
:100DB00005010902A10185020901A1000509190126
:100DC00029081500250195087501810205010930E2
:100DD00009311581257F950275088106093815812D
:100DE000257F950175088106050C0A3802158125B5
:100DF0007F950175088106C0C005010980A10185A4
:100E00000319012AB700150126B700950175108155
:100E100000C0050C0901A101850419012AA00215D1
:100E20000126A002950175108100C005010906A1E7
:100E3000018506050719E029E715002501950875C4
:100E40000181020507190029EF1500250195F075AC
:100E50000181020508190129059505750191029581
:100E60000175039101C005010906A101050719E0FB
:100E700029E715002501950875018102950175087E
:100E800081010507190029FF150026FF0095067549
:100E9000088100050819012905950575019102953C
:100EA0000175039101C009023B00020100A0FA098B
:100EB0000400000103010100092111010001224089
:100EC0000007058103080001090401000103000077
:100ED0000009211101000122B6000705820320004C
:100EE0000112010002000000087342857600010132
:100EF0000200010A036C0075006C00750000001808
:100F00000342006F0061007200640073006F00759F
:100F1000007200630065000000040309040011244E
:100F20001FBECFEFDAE0DEBFCDBF04B603FE18C0B0
:100F30008091230790912407A0912507B09126075F
:100F40008730904BA740B04B59F410922307109272
:100F500024071092250710922607E0E0F8E3099590
:100F600012E0A0E0B1E0E6E0FEE502C005900D92DF
:100F7000AE3BB107D9F727E0AEEBB2E001C01D925E
:100F8000A332B207E1F70E9426260C94A52E0C94FA
:100F90000000CF93DF9340912107509122074152E7
:100FA00055409A013E5F21303240C0F020E032E0EF
:100FB000241B350B60911F0570912005FC01CA01AF
:100FC000240F351FC1E0D0E08217930750F07093D3
:100FD000200560931F05DF91CF91089520E032E056
:100FE000E9CF4491DC01AF5DBA4F5C91451781F0C8
:100FF0004C93AC01A5E056954795AA95E1F7DE0123
:1010000002C0AA0FBB1F4A95E2F7AD016A2B752BF0
:1010100001963196D9CF90911905937061F08111A5
:101020000BC09460909319051092460180911805A9
:101030008160809318050895883010F09C61F2CF8C
:10104000880F880F982BEECF90911905937071F04F
:1010500080931A0560931B05473908F046E94093D1
:101060001C05809118058160809318050895E8EDAE
:10107000F0E080818E7F80831092E2001092DA008F
:101080001092E100A0EEB0E08C9181608C938081A1
:101090008F77808319BCA7EDB0E08C918E7F8C9305
:1010A00080818F7E80831092E20408952091E40075
:1010B0003091E50095E6A9012091EC00822F817026
:1010C00020FF06C08091E80080FF06C080E0089500
:1010D0002091E80022FD1AC080910705882389F03D
:1010E000853089F08091EB0085FD0FC02091E400F0
:1010F0003091E50042175307F9F29150E1F684E090
:10110000089582E0089583E0089581E00895809134
:10111000090587FF13C08091E80082FF06C0809117
:10112000E8008B778093E80004C080910705811167
:10113000F2CF0895809107058823D9F38091E800C4
:1011400080FFF8CF8091E8008E77ECCF982F9093B6
:10115000E900242F762F50E0891731F07091EC00D0
:101160002091ED005091F00021FD07C09F5F973066
:1011700071F78093E90081E008953091EB003E7FA4
:101180003093EB003091ED003D7F3093ED003091D6
:10119000EB0031603093EB007093EC002093ED0096
:1011A0005093F0002091EE0027FDE0CF80E00895FD
:1011B000B0E0A0E0EEEDF8E00C94F62DC8EDD0E044
:1011C00088818F7E8883E7EDF0E080818160808375
:1011D00084E082BF81E08093E20488818E7F8883EF
:1011E00002EE10E0F80110821092DA0081EEC82EB3
:1011F000D12CF601108288818F778883888180685E
:10120000888388818F7D888319BC1092070510928E
:101210000805109206051092050590EEE92EF12CB6
:10122000F70180818B7F808388818160888342E0A1
:1012300060E080E00E94A608F60180818E7F8083B6
:10124000F801808181608083808188608083F701DC
:1012500080818E7F8083888180618883CDB7DEB76F
:10126000E8E00C94122EFC0180910F05909110057E
:1012700086179707A0F06115710529F49091E80091
:101280009E779093E80090E06115710551F49111FB
:1012900008C08091E80082FF34C080E00895BC015E
:1012A000F2CF809107058823C1F18530C1F180918B
:1012B000E80083FD30C08091E80082FDEACF809194
:1012C000E80080FFE1CF8091F3002091F200382FF9
:1012D0006115710519F02830310558F091E028307A
:1012E000310509F090E02091E8002E772093E80086
:1012F000CBCF81918093F100615071092F5F3F4FF7
:10130000E7CF80910705882341F0853041F0809137
:10131000E80083FFBECF81E0089582E0089583E076
:1013200008958091E40408952FB7F8946091DC0447
:101330007091DD048091DE049091DF042FBF089549
:10134000209142012223C9F02091E00427FF15C01B
:10135000E62FE695E695E695EE31D8F4E80FF92FFD
:10136000F11D677021E030E001C0220F6A95EAF7B5
:1013700020958281282322830895FC0132960896C5
:101380002191621303C0DF0111971C92E817F9073E
:10139000B9F70895209142012223C1F02091E00481
:1013A00027FF14C0E62FE695E695E695EE31F8F4B2
:1013B000E80FF92FF11D677021E030E001C0220F26
:1013C0006A95EAF78281822B82830895FC01329626
:1013D0002FEF30E04191641751F02F3F19F4411184
:1013E00001C0232F3F5F3630A9F72F3F09F408953E
:1013F000820F911D27FD9A95FC0162830895A3E059
:10140000B0E0E5E0FAE00C94FC2D2091D904309195
:10141000DA0428173907A1F09093DA048093D904ED
:10142000E091D704F091D804309751F024E029835B
:101430009B838A830680F781E02DCE010196099572
:101440002396E2E00C94182EA3E0B0E0EAE2FAE082
:101450000C94FC2D2091D5043091D604281739071F
:10146000A1F09093D6048093D504E091D704F09135
:10147000D804309751F023E029839B838A83068028
:10148000F781E02DCE01019609952396E2E00C94B8
:10149000182EFC01680F791F8FEF91E321918227AD
:1014A00028E030E087FF09C0880F892721503109E3
:1014B000C9F7E617F70791F70895880FF7CFFA01F4
:1014C000811101C0FB0109950895E9E1F5E024814E
:1014D00030E1231B08F420E024838091180581600B
:1014E000809318050895E9E1F5E0248130E1230FA8
:1014F00008F42FEF248380911805816080931805EC
:101500000895E9E1F5E0438120E1421B08F440E061
:101510008181628190E00E9424080895E9E1F5E06C
:10152000438120E1420F08F44FEF8181628190E016
:101530000E9424080895E9E1F5E0628120E1621B40
:1015400008F460E08181438190E00E9424080895BE
:10155000E9E1F5E0628120E1620F08F46FEF81813B
:10156000438190E00E9424080895E9E1F5E081813B
:10157000438162818850990B0E9424080895E9E113
:10158000F5E0818190E04381628108960E94240801
:1015900008958091190586958695815009F487E014
:1015A0000E940B08089580911905869586958F5F96
:1015B000883008F081E00E940B080895E42FF0E0E5
:1015C000EE0FFF1FE451FE4F408134EE439F412D4B
:1015D0001124E82FF0E050E0445E5F4FDA01A21BD7
:1015E000B1099D01B7FF03C031952195310993E001
:1015F000220F331F9A95E1F7AF01421B530B9A015B
:1016000057FD20E0582F259F212D1124822F08956A
:10161000E42FF0E0EE0FFF1FE451FE4F408134EE67
:10162000439F412D1124E72FF0E050E0445E5F4FCF
:10163000DA01A21BB1099D01B7FF03C031952195C5
:10164000310993E0220F331F9A95E1F7AF01421B56
:10165000530B9A0157FD20E0279F212D1124722F53
:1016600008950E9440110895FF920F931F93CF9306
:10167000DF93182F062FF42ED0E0C0E02F2D402F3F
:10168000612FCE010E94310B2196C634D105B1F7EE
:10169000CDB7DEB7E5E00C94152EAF92BF92CF9296
:1016A000DF92FF920F931F93CF93DF93362F472F35
:1016B000E82FF0E0E455F34F71110FC0E4918E2F45
:1016C0002E2F6E2F722FDF91CF911F910F91FF90D0
:1016D000DF90CF90BF90AF900895C72FD0E02491B6
:1016E000F22E022F10E056E0659FC0011124EFEFAB
:1016F000F0E0BF010E94D82D832F90E0880F991F42
:1017000035E5369FD001379FB00D11248A1B9B0B06
:10171000982F990F980F6F01CC1ADD0AC09ED00147
:10172000C19EB00DD09EB00D11248B2F499FA001FA
:101730001124452F55276F01C41AD50AC09EA00158
:10174000C19E500DD09E500D11245F01A91AB10801
:10175000AC9E6001AD9ED00CBC9ED00C1124CD2C53
:10176000DD24EC19FD09E09FE001E19FD00DF09F21
:10177000D00D1124ED2F62307105A1F050F46115E8
:10178000710509F49ECF6130710581F0EB2F852F33
:1017900098CF6430710569F080F06630710509F406
:1017A00090CFF4CFE22F2B2F8D2F8BCFE22F252F31
:1017B00088CFEB2F822F2D2F84CF2B2F8F2DE52F2E
:1017C00080CF8091EE0380FD16C081FD16C082FDA2
:1017D00016C08091ED038823A1F0883280F428E0C0
:1017E000829FC001112468E270E00E94232E862FA0
:1017F000672B39F0089582E0089584E0089588E029
:10180000089581E008958091EE0380FD14C081FD6C
:1018100014C082FD16C08091EC03882381F08E31C4
:1018200080F420E5829FC00111246EE170E00E94E7
:10183000232E862F089584E1089588E2089588E094
:10184000089580E5089580E00895F894E82FE295E2
:10185000EF70F0E031A1282F2F7081E090E001C0FF
:10186000880F2A95EAF7982F9095932391A392A138
:10187000892B82A3789408959091E00492FF06C08A
:10188000282F28712830F9F4877F846093FF06C0E1
:10189000282F28712831F1F4877E84612091E1049A
:1018A00020FF06C0382F38713830D9F4877F816027
:1018B00021FF06C0282F28712831D1F4877E81614D
:1018C00094FD877E0895282F24712430F9F68B7FAC
:1018D0008860DCCF282F2471243101F78B7E88614A
:1018E000DDCF382F3171313019F78E7F8860E0CF2E
:1018F000282F2171213121F78E7E8861E1CF823836
:101900009105B9F1B0F48133910509F47DC048F433
:101910008932910509F46DC08A32910509F47BC0C2
:1019200008958533910509F45FC08933910509F164
:101930000895833E9105D9F138F4803E910529F14F
:10194000823E910579F10895863E9105D9F1873E51
:10195000910509F43EC0843E910541F52091E104D2
:1019600021FF24C08091E00484FD19C087EE90E03F
:1019700008952091E004237009F05AC02091E104F9
:1019800023FF14C089E290E008952091E00420FD37
:1019900038C03091E10430FF09C024FF43C090E01B
:1019A00080E008952091E00422FDF7CF0895209172
:1019B000E00422FD3AC03091E10430FD39C024FF3B
:1019C000F5CFEDCF2091E00423FFF0CF24FDE7CF4A
:1019D000CDCF2091E00423FD2EC03091E10431FFF2
:1019E000EECF84EE90E008952091E00425FFDECF55
:1019F000C9CF2091E00425FD21C02091E10423FFFF
:101A0000D5CF89E390E0D2CF2091E00426FFCECF5E
:101A10008AE290E008952091E00426FFC7CF81E399
:101A200090E0089583EE90E0089582EE90E00895AE
:101A300080EE90E0089586EE90E0089585E390E0D2
:101A40000895972F7A30B8F46630A8F48430B0F453
:101A500070E026E0929F600D711D1124FB019CE354
:101A6000899FE00DF11D1124EE0FFF1FE455FF4F7C
:101A700085919491089580E090E0089581E0FCCFF5
:101A80001F93CF93DF930E947F0CEC01C11580E57B
:101A9000D807F0F5C11580E4D80708F09CC0C03E17
:101AA000D10520F5CD3CD10508F082C0C83AD1055A
:101AB00078F4C53AD10508F073C0C130D10519F1E9
:101AC000209709F1C430D105F0F4D0E0C0E01BC08C
:101AD000C33CD105D0F7C85AD0E0CC0FDD1FC35BA3
:101AE000DE4F0990D881C02DD4640DC0C11580E2AD
:101AF000D80708F0D1C0C11581E0D80708F05AC056
:101B0000C83ED10510F7CE01DF91CF911F91089506
:101B1000C03682E5D80718F5C03482E5D80708F04A
:101B20006BC0C03282E5D80708F05FC0C11582E5FE
:101B3000D80708F497C02C2F2695269580E2289F79
:101B4000900111248C2F8370C1E0D0E002C0CC0F33
:101B5000DD1F8A95E2F7C22BD32BDD68D4CFC03AC4
:101B600082E5D80760F4C03882E5D80708F459C088
:101B7000CF71D0E0DC2FCC27C46FD06AC4CFC03C7B
:101B800082E5D80708F462C0C03E82E5D80708F0B5
:101B90009CCFDC2FCC27CC27DF71C06FD06AB3CFAE
:101BA000C55AD0E0C65BDE4FC881D0E0D064ABCF71
:101BB000D065A9CF8D2F0E943C0C182FCE019927FC
:101BC0000E947F0CC12FD0E0DC2FCC27CC27DF7107
:101BD000C82BD92B98CFCE0199270E947F0CCC27F8
:101BE000DF70C82BD92BD06A8ECFCF71D0E0DC2F1D
:101BF000CC27C16FD06A87CF2C2F269526952770CA
:101C000080E2289F900111248C2F8370C1E0D0E0E6
:101C100002C0CC0FDD1F8A95E2F7C22BD32BDC6804
:101C200072CF2C2F26952695277080E2289F900151
:101C300011248C2F8370C1E0D0E002C0CC0FDD1FD7
:101C40008A95E2F7C22BD32BDA685DCF8C2F8F7188
:101C50000E943C0CC82FD0E0DC2FCC27CC27DF71B2
:101C6000D06251CF8C2F8F710E943C0C55E0D695DD
:101C7000C7955A95E1F7CF70D0E0DC2FCC27282FFD
:101C800030E084FF05C044E0220F331F4A95E1F79E
:101C9000C22BD32BD06937CF8D2F8F710E943C0C74
:101CA000182FCE0199270E947F0CC12FD0E0DC2F86
:101CB000CC27CC27DF71C82BD92BD2CF0E94940917
:101CC000089580915C03811110925C0308958095C2
:101CD00090915B03982390935B03089520913803C0
:101CE0009091070356E0291302C080E0089530E088
:101CF000529FF001539FF00D1124E85FFC4F71815A
:101D0000761306C07081781303C07281741304C007
:101D10002F5F3F4F2770E7CF81E008958091380310
:101D200090910703981301C008958F5F8770FACFD1
:101D3000B0E0A0E0EEE9FEE00C94F52D7C0100910E
:101D4000C5031091C60380915D0390915E03082B3B
:101D5000192BCFE0D0E0CC24C394D12CBC2EC601EB
:101D60000C2E02C0880F991F0A94E2F7802391235A
:101D7000892B49F4219790F7B12C8B2DCDB7DEB785
:101D8000E9E00C94112EB7018C2F0E94210D0E94C6
:101D9000400D019779F3F1CFCF93DF93EC010E94CF
:101DA000980EBE010E94210D0E94400DDF91CF913F
:101DB00008959A3078F5863068F5E82FF0E086E0EF
:101DC000989FE00DF11D11249E2F977083E0F695EA
:101DD000E7958A95E1F7EE0FFF1FEE0FFF1FEF511A
:101DE000FD4F50E040E080E0219130E0092E02C03C
:101DF000369527950A94E2F721703327042E01C007
:101E0000220F0A94EAF7822B4F5F5F4F443051054F
:101E100059F7089580E008959A3098F5863088F54E
:101E2000E82FF0E086E0989FE00DF11D11248E2F41
:101E3000877041E001C0440F8A95EAF783E0F69588
:101E4000E7958A95E1F7EE0FFF1FEE0FFF1FEF51A9
:101E5000FD4F30E020E070E05191DF011197CB01A0
:101E6000022E02C0969587950A94E2F781708195BB
:101E70008527842385278C932F5F3F4F243031059E
:101E800059F708959093C6038093C503089521E000
:101E900030E002C0220F331F8A95E2F7209530957B
:101EA0008091C5039091C603822393230E94420F21
:101EB0000895909139038095892380933903282FC1
:101EC000277091F4282F082E000C330B921713065D
:101ED00059F09091E10492FF07C08595859585950D
:101EE0000E94470F10923903089521E030E002C0AC
:101EF000220F331F8A95E2F78091C5039091C603A4
:101F0000822B932B0E94420F089590935E0380933F
:101F10005D030895FC0183819481892B29F08081E0
:101F2000918189238F3F51F480E00895843FE1F748
:101F300017C0883EA8F0813FB9F712C08081918117
:101F40000E94CC0E92959F70963099F358F4925F50
:101F50009F70923048F7803F19F040F7883E20F795
:101F600081E008959A5FF4CFB0E0A0E0EAEBFFE0F3
:101F70000C94F62D6C017B0164E670E088E70E940A
:101F8000362BEC0197FD12C010E000E0F601E00FE7
:101F9000F11F849164E670E00E94A22BEC01892B72
:101FA00029F40F5F1F4F0E151F0581F70E94182C93
:101FB000CE01CDB7DEB7E8E00C94122E8091D304A9
:101FC0009091D404911103C091E08927089588234A
:101FD00069F062E070E08EEA9DE00E94B40F892B08
:101FE00019F08091D30408951092D3048091D30402
:101FF000EBCFCF93C091D3048091D4048823D1F048
:102000000E949409605A75418F4F9F4F6093CF048F
:102010007093D0048093D1049093D204C11108C06E
:1020200062E070E08CEA9DE00E94B40F892B29F0F9
:10203000C091D3048C2FCF91089581E08093D30475
:10204000F7CF0F931F93CF93DF938B01EA0190910A
:102050000705943061F58093E9008FEF9091E800D7
:10206000815095FD06C095ED9A95F1F7000081111C
:10207000F5CF8091E80085FF1AC00E9456088111B3
:1020800011C08091E80085FD06C08091E8008E7740
:102090008093E800F2CFF80181918F018093F100E5
:1020A000219779F78091E8008E778093E800DF919F
:1020B000CF911F910F91089543E050E0BC0182E061
:1020C0000E942110089546E050E0BC0182E00E9489
:1020D00021100895CF93DF93EC018091420181118B
:1020E00011C048E050E0BE0181E00E94211080E272
:1020F000FE01A5EEB4E001900D928A95E1F7DF9123
:10210000CF9108958091E00487FF05C040E282E00E
:1021100050E0BE01EACF48E081E0FACF81E0809351
:10212000E00080E28093D8001092C9008FE19EE425
:102130000197F1F700C0000087E090EBDC0180938D
:10214000230790932407A0932507B093260788E1DF
:102150009CE00FB6F894A895809360000FBE909312
:102160006000FFCF539A3BB1377F2BB128604FB748
:10217000F8948DEF93E0FC015191CF0168E02BB909
:10218000000000C057FF3BB9550F000000C000C061
:1021900000C03BB900C06A9591F7F4E08F3C9F07FF
:1021A00051F74FBF8FE594E00197F1F700C00000B1
:1021B0000895B0E0A0E0EFEDF0E10C94F42D7C0187
:1021C0005B016A018091940301E010E08A3010F411
:1021D0000AE010E0C1E0D0E0B501C701F6010995C1
:1021E000811104C021960C171D072CF4CDB7DEB762
:1021F000EAE00C94102ECC9F9001CD9F300D300D55
:10220000112490E080E045E34A95F1F70000019643
:1022100082179307C1F7E0CF80916B03811110C043
:102220008091D80080618093D8008AE18A95F1F787
:1022300000C08091D90080FF0AC081E080936B03C9
:1022400081E090916B03913009F080E0089582E085
:1022500080936B030E94370810920705F1CF0E940C
:102260000C11882359F0E091D704F091D8043097ED
:1022700029F00190F081E02D0995089580E00895FE
:10228000FF920F931F93CF93DF93EC01F62E042F51
:10229000122F0E940C1181110FC0C332D1057CF0A6
:1022A000A397FE01EE0FFF1FEC0FFD1FE350FC4F45
:1022B000F1820083128303C0C332D10594F3CDB7FA
:1022C000DEB7E5E00C94152ECF93C82F0E940C11B9
:1022D000882329F081E0C33228F080E003C081E048
:1022E000C634D8F7CF910895EF92FF920F931F93C2
:1022F000CF93DF937C01C09143018EE0C89FC02D36
:1023000011241EE01C0F173408F016E40E940C1173
:10231000882319F0143208F013E20E940C11811185
:1023200003C0C33208F4C3E230911D0536953695DB
:1023300021E0320F08F43FEF409111055091120552
:1023400090E080E0439F812D539F800D911D1124CB
:10235000082FD0E0C11740F0812F0E946411CDB743
:10236000DEB7E6E00C94142EFE01E858FD4F8081A4
:1023700090914401892391F060911A0570911B0599
:1023800080911C05202F4C2FF70109950E944D0BC1
:10239000462F282F672FCE010E94310B2196DACFCE
:1023A0000F931F930E940C11882329F00E94940917
:1023B0001F910F9108950E94940900919503109127
:1023C00096032091970330919803600F711F821F2D
:1023D000931FEECFB0E0A0E0E0EFF1E10C94F42D1C
:1023E0000E94D0116093F9037093FA038093FB036A
:1023F0009093FC0330911905132F137019F0132FCC
:1024000016951695209146012130D9F0222359F0D6
:10241000223009F4F3C1233009F4F9C1CDB7DEB796
:10242000EAE00C94102E1092430160931105709312
:102430001205809313059093140581E08093460163
:10244000EDCF9091410181E019130BC0832F837070
:102450002091400130E091E08217130609F490E0EA
:10246000892F81708093450180911E0590914401D0
:10247000981739F08093440140E060E080E00E94CA
:10248000340B183078F4E12FF0E0E955F14D0C945D
:10249000372E80914501882389F140E060E080E09B
:1024A0000E94340B80E02AC0C09143018EE0C89F97
:1024B000C02D11240EE00C0F073408F006E40E9432
:1024C0000C11882319F0043208F003E20E940C1169
:1024D000811103C0C33208F4C3E260911A05709100
:1024E0001B0580911C050E944D0BF62EE72ED82E61
:1024F000D0E0C017A8F0802F0E9464119091430192
:102500009F5F90934301811189CF82E080934601C0
:1025100080914501811182CF111180CF83E08ECF50
:10252000FE01E858FD4F808190914401892331F0EC
:102530002D2D4F2D6E2DCE010E94310B2196D9CF1E
:10254000C09143018EE0C89FC02D11240EE00C0FF6
:10255000073408F006E40E940C11882319F00432B5
:1025600008F003E20E940C11811103C0C33208F489
:10257000C3E2E0901B05F0901C05D0911A056D2F69
:102580007E2D8F2D0E944D0BD62EC72EB82E60911A
:102590001D056D0F7E2D8F2D0E944D0BF62EE72E03
:1025A000A82ED0E0C01708F0A6CFFE01E858FD4FD6
:1025B000908180914401892359F02A2D4F2D6E2D51
:1025C00090FD03C02B2D4D2D6C2DCE010E94310BA3
:1025D0002196E8CFC09143018EE0C89FC02D112401
:1025E0000EE00C0F073408F006E40E940C1188235B
:1025F00019F0043208F003E20E940C11811103C0AB
:10260000C33208F4C3E2E0901B05D0901C05209172
:102610001D0550E4F52E3F2D329F312D1124F32E50
:10262000D0E0C01708F067CFFE01E858FD4F808169
:10263000909144018923B9F0FE01EE0FFF1FE05590
:10264000FE4F85AD82958F7060911A058F9D600D4C
:1026500011247E2D8D2D0E944D0B462F282F672F84
:10266000CE010E94310B2196DCCFC09143018EE058
:10267000C89FC02D11240EE00C0F073408F006E4AB
:102680000E940C11882319F0043208F003E20E9422
:102690000C11811103C0C33208F4C3E2E0901B05A2
:1026A000D0901C0520911D0530E4F32E3F2D329F64
:1026B000312D1124F32ED0E0C01708F01CCFFE01FD
:1026C000E858FD4F8081909144018923D9F0FE01A3
:1026D000EE0FFF1FE055FE4F64ADF69EB0011124D2
:1026E00095E0759567959A95E1F780911A05680FC1
:1026F0007E2D8D2D0E944D0B462F282F672FCE014A
:102700000E94310B2196D8CFE0904301DEE0ED9E90
:10271000D02D1124CEE0CD0FC73408F0C6E40E94BE
:102720000C11882319F0C43208F0C3E20E940C1186
:10273000811103C0D33208F4D3E260911A0570917D
:102740001B0540911C05E0911105F0911205809147
:102750001D0586958695869530E020E0E89F212D21
:10276000F89F200D311D1124922F96FD2095322FB8
:102770003F7096FD3F5F2695269526952670E22FA1
:10278000F0E0E855FE4F8181839F802D312D11248B
:1027900082958F703295307F832B2081820F97FD39
:1027A000819587FD8195880F282F249F212D112445
:1027B000822F0E944D0B062FD72EC82EED2EF12C06
:1027C000EC1610F08C2F98CEF701E858FD4F808161
:1027D00090914401892331F02C2D402F6D2DC7019C
:1027E0000E94310B3FEFE31AF30AEACF88E09BE047
:1027F0000E94741183CE8EED9AE0FACF10934101BE
:10280000832F8370809340010E94B21087CE809105
:102810001805882351F046E050E06CE170E089E152
:1028200095E00E94712E10921805C0901105D0906D
:102830001205E0901305F09014050E940C118823F6
:10284000C1F02FB7F8946091DC047091DD048091A1
:10285000DE049091DF042FBF6C197D098E099F095A
:10286000603171058105910508F4D8CD10924601BB
:10287000D5CD0E94D011F0CFE9E1F5E085E080836D
:102880008091470190914801A091490181839283F1
:10289000A3838FE784838FEF858346E050E06CE16C
:1028A00070E0CF010E94712E10921805089580915A
:1028B0005B0390915A03892B8093C00290915C0333
:1028C0009923A1F0892B8093C00280914201882333
:1028D000E1F18091E00487FF38C08EE1E2ECF2E0A4
:1028E00090E08150A0F591110E94610E40E250E00D
:1028F0006AE373E080EC92E00E943D2E892B21F187
:1029000080E2E0ECF2E0AAE3B3E001900D928A9558
:10291000E1F7E091D704F091D8043097A9F08091C5
:102920004201882359F08091E00487FF07C080911D
:10293000C0028093C10286E08093C0020280F381CE
:10294000E02D80EC92E00995089586E0C7CF2191B3
:10295000222339F29F5FC5CF882321F00E94670EA2
:102960000E9457140895882339F090915B03982BA7
:1029700090935B030E94571408959091E10492FB99
:10298000222720F9281779F080FB92F99093E1042F
:102990006091E0047091E10484E090E00E949F2E39
:1029A00082E00E94590F0895A7E0B0E0EAEDF4E15B
:1029B0000C94FA2D86E0E9E1F5E0DE011196019034
:1029C0000D928A95E1F71F8247E050E069E873E0D5
:1029D000CE0101960E943D2E00919003109191032B
:1029E0002091920330919303EFB7F8944091DC0467
:1029F0005091DD046091DE047091DF04EFBF401B55
:102A0000510B620B730B443651056105710518F4C7
:102A100011E0892B21F18091290190912A0183589D
:102A20009C4F4091280150E04830510510F047E09C
:102A300050E0BE016F5F7F4F0E944A2E85E090E01C
:102A40000E94622D182F882351F00E9494096093F0
:102A50009003709391038093920390939303812F3B
:102A60002796E4E00C94162EA4E0B0E0EAE3F5E14A
:102A70000C94FB2D4091790350917A0360917B0374
:102A800070917C032FB7F8948091DC049091DD0461
:102A9000A091DE04B091DF042FBF841B950BA60B21
:102AA000B70B11E084369105A105B10570F10E94C4
:102AB000D0116E5F7F4F8F4F9F4F69837A838B83D7
:102AC0009C83809121019091220183589C4F4091D9
:102AD000200150E04530510510F044E050E0BE01C7
:102AE0006F5F7F4F0E944A2E84E090E00E94622D2B
:102AF000182F882351F00E949409609379037093F2
:102B00007A0380937B0390937C03812F2496E3E0E8
:102B10000C94172E4F925F927F928F929F92AF925A
:102B2000BF92CF92DF92EF92FF920F931F93CF93BA
:102B3000DF930F92CDB7DEB7C62E4A015901482E5A
:102B4000880F5508C2010E94622D782E882309F44F
:102B500080C0C20133E0880F991F3A95E1F7FC016C
:102B6000E050FF4F438150E04115510511F041E025
:102B700050E080509F4FFC016481758163587C4F09
:102B8000CE0101960E944A2EF4014081518162815A
:102B900073812FB7F8948091DC049091DD04A091AB
:102BA000DE04B091DF042FBF841B950BA60BB70B7F
:102BB00084369105A105B10540F4B701C8010E9412
:102BC000490A9981891709F444C00C2C000CDD08CE
:102BD000C6010E94622D782E811113C0712C872DA1
:102BE0000F90DF91CF911F910F91FF90EF90DF90A9
:102BF000CF90BF90AF909F908F907F905F904F90BD
:102C00000895C60123E0880F991F2A95E1F7FC017A
:102C1000E050FF4F438150E0E416F50608F4A701A9
:102C200080509F4FFC016481758163587C4FC501C2
:102C30000E944A2EB701C8010E94490A998189134E
:102C4000CDCF0E949409F4016083718382839383C2
:102C5000C6CFA701B801C5010E944A2EC0CFA5E08A
:102C6000B0E0E5E3F6E10C94F62D6B0185E0E82E8B
:102C7000F12C0EE713E09E012F5F3F4F41E753E039
:102C800061E080E00E948A15882349F095E0FE010A
:102C90003196ACE6B3E001900D929A95E1F795E09C
:102CA000ECE6F3E0D60101900D929A95E1F72596B6
:102CB000E8E00C94122E67EE7EEF90E080E00E9438
:102CC0009F2E60E082E090E00E94812E60E083E031
:102CD00090E00E94812E10925E0310925D0360E0EE
:102CE00074E184E090E00E949F2E60E086E090E036
:102CF0000E94812E6FEF87E090E00E94812E40E0DD
:102D000050E0BA0188E090E00E94932E60E08DE0F0
:102D100090E00E94812E40E050E0BA0188E190E00E
:102D20000E94932E60E087E190E00E94812E40E0B7
:102D300050E0BA018CE190E00E94932E70E060E0D8
:102D400080E290E00E949F2E40E050E0BA0188E1CE
:102D500090E00E94932E40E050E0BA018FE090E0B6
:102D60000E94932E40E050E0BA0183E190E00E947F
:102D7000932E08951F920F920FB60F9211242F9346
:102D80003F934F935F936F937F938F939F93AF93F3
:102D9000BF93EF93FF938091E10082FF09C0809180
:102DA000E20082FF05C08091E1008B7F8093E1000B
:102DB0008091DA0080FF24C08091D80080FF20C07D
:102DC0008091DA008E7F8093DA008091D90080FFB5
:102DD0009DC080E189BD82E189BD09B400FEFDCFBF
:102DE00081E0809307058091E204811109C00E946F
:102DF00037080E94D8088091E20084608093E20046
:102E00008091E10080FF17C08091E20080FF13C035
:102E10008091E2008E7F8093E2008091E2008061E9
:102E20008093E2008091D80080628093D80019BC22
:102E300085E0809307058091E10084FF2BC080919D
:102E4000E20084FF27C080E189BD82E189BD89B5A8
:102E5000982F917080FFFBCF8091D8008F7D809359
:102E6000D8008091E1008F7E8093E1008091E200A4
:102E70008F7E8093E2008091E20081608093E20087
:102E800080910805882309F447C084E080930705F2
:102E9000809107058091E10083FF27C08091E200C7
:102EA00083FF23C08091E100877F8093E10082E06F
:102EB00080930705109208058091E1008E7F809332
:102EC000E1008091E2008E7F8093E2008091E20039
:102ED00080618093E20042E060E080E00E94A6080A
:102EE0008091F00088608093F000FF91EF91BF9196
:102EF000AF919F918F917F916F915F914F913F9192
:102F00002F910F900FBE0F901F90189519BC109223
:102F100007051092E20474CF8091E30087FD93E0EF
:102F200090930705B5CF78941F921FB61F92112476
:102F30008F939F93AF93BF938091DC049091DD04B6
:102F4000A091DE04B091DF040196A11DB11D809314
:102F5000DC049093DD04A093DE04B093DF04BF9102
:102F6000AF919F918F911F901FBE1F9018959C014C
:102F70004FB7F8948091DC049091DD04A091DE04B9
:102F8000B091DF044FBF821B930B08952FB7F894C5
:102F90008091DC049091DD04A091DE04B091DF0407
:102FA0002FBF08950E94C6179C019091F503809150
:102FB000F603982B21F03093F2032093F1039091C4
:102FC000F7038091F803982B21F03093F0032093BE
:102FD000EF03E091D704F091D804309749F082E0F4
:102FE0008093F3030480F581E02D83EF93E009954E
:102FF000089510925B0380914201E2ECF2E0882395
:1030000029F18091E00487FF21C08EE1DF011D924C
:103010008A95E9F790E080E00E94240A90E080E041
:103020000E94FF0910925A030E94571486E0E3EFB2
:10303000F3E0DF011D928A95E9F71092EC031092FC
:10304000ED031092EE030E94D217089586E0DECFC2
:10305000AAE2B0E0EEE2F8E10C94FB2D89E095E005
:103060002091F100FC012193CF01F5E081319F0710
:10307000B9F780910A05833009F470C0B8F4813043
:1030800009F447C0823009F4B1C08091E80083FFA1
:103090007EC28091090590910A059A3008F077C2A6
:1030A000E92FF0E0E155F14D0C94372E8A3009F408
:1030B0008CC08B3009F46FC0893039F780910905D5
:1030C000813219F780910D0590910E050297E8F66F
:1030D0008091E800877F8093E8008091E80082FF7C
:1030E00038C09091F3008091F200029731F4809102
:1030F000F100813011F0863021F48091F10080934D
:10310000E4048091E8008B778093E8000E948708B0
:10311000BCCF80910905813A09F0B7CF8091E800D2
:10312000877F8093E80080910D0590910E05892B93
:1031300061F460E285EE94E070E00E9433098091D2
:10314000E8008B778093E800A0CF60E090E080E01B
:10315000F3CF809107058111C0CF97CF80910905EA
:10316000813A09F092CF80910D0590910E05892B3F
:1031700009F08BCF8091E800877F8093E8008091F1
:10318000E80080FFFCCF809142018093F1008091A4
:10319000E8008E77B9CF80910905813209F075CFAB
:1031A00080910D0590910E05892B09F06ECF8091CD
:1031B000E800877F8093E8000E94870880910B05D4
:1031C000809342010E94F91760CF809109058132F6
:1031D00009F05BCF8091E800877F8093E8000E9430
:1031E000870880910C058093E3044FCF80910905F7
:1031F000813A09F04ACF8091E800877F8093E80008
:103200008091E80080FFFCCF8091E304BECF80383E
:1032100099F0823809F0BBC180910D058F7087301D
:1032200008F0B5C18093E9008091EB0085FB882709
:1032300080F91092E90006C080910505909106057D
:10324000911182609091E800977F9093E8008093BD
:10325000F1001092F1008091E8008E7794C18823EC
:1032600009F482C1823009F092C180910B0581116D
:1032700085C180910D058F702FEF280F263008F043
:1032800086C18093E9002091EB0020FF77C1933045
:1032900031F48091EB0080628093EB006FC19091DC
:1032A000EB0090619093EB0021E030E001C0220F31
:1032B0008A95EAF72093EA001092EA008091EB00E9
:1032C0008860EACF811163C110910B051F7780914F
:1032D000E3008078812B8093E3008091E800877F72
:1032E0008093E8000E9487088091E80080FFFCCF6F
:1032F0008091E30080688093E30082E0111183E015
:103300008093070544C18058823008F040C1809105
:103310000B0590910C058C3D23E09207A1F583E00D
:103320008A838AE289834FB7F894DE01139620E0FE
:103330003EE051E2E32FF0E050935700E49120FF8C
:1033400003C0E295EF703F5FEF708E2F90E0EA30A0
:10335000C0F0C7968D939D932F5F243159F74FBFCF
:103360008091E800877F8093E8006AE270E0CE01F8
:1033700001960E9433098091E8008B778093E800E2
:1033800006C1C096E7CF40910D0550910E05292F3B
:1033900033272330310509F444C078F52130310555
:1033A00009F46FC08BE390E0E6EAFEE022303105DD
:1033B00009F0EDC02091E800277F2093E8002091DC
:1033C0000F05309110058217930708F49C0140E027
:1033D0002115310509F064C0411162C08091E800F7
:1033E00082FDC9CF80910705882329F2853019F223
:1033F0008091E80083FFF2CFBECF21323105A9F1E1
:103400002232310509F0C3C04115510509F443C00A
:103410004130510509F0BBC086EB90E0E0EBFDE0E8
:10342000C9CF992781309105C1F0009759F00297D3
:1034300009F0ADC0E3EFFEE0E4918E2F90E0E3EF02
:10344000FEE007C0E9E1FFE0E4918E2F90E0E9E1C2
:10345000FFE0009709F49BC0ADCFEFEFFEE0E491F1
:103460008E2F90E0EFEFFEE0F4CF4115510571F0A3
:103470004130510509F08BC089E090E0E1EDFEE0BC
:1034800099CF82E190E0E1EEFEE094CF89E090E018
:10349000E8EBFEE08FCF80E490E0E6E6FEE08ACF46
:1034A00080910705882309F466CF853009F463CF3E
:1034B0008091E80083FD5FCF8091E80082FD8ECF90
:1034C0008091E80080FF84CF9091F3008091F2001A
:1034D0002115310519F08830910550F041E0089729
:1034E00009F040E08091E8008E778093E80070CF8B
:1034F00044914093F1003196215031090196E8CF73
:10350000803809F044C08091E800877F8093E8000C
:10351000809108058093F1009ECE811138C01091F2
:103520000B051230A0F58091E800877F8093E800BA
:10353000109308050E948708112311F084E005C04C
:103540008091E30087FDFACF81E08093070542E098
:1035500061EC81E00E94A60842E261EC82E00E94F8
:10356000A6088091070513C080910B05813079F47E
:1035700081E0933009F080E0809306051092E90025
:103580008091E800877F8093E8000E9487088091FF
:10359000E80083FF0AC08091E800877F8093E800FD
:1035A0008091EB0080628093EB00AA96E3E00C949C
:1035B000172E1F920F920FB60F9211242F933F9345
:1035C0004F935F936F937F938F939F93AF93BF932B
:1035D000CF93DF93EF93FF93D091E900DF70809159
:1035E000EC00C82FC17080FDC0E81092E900809106
:1035F000F000877F8093F00078940E942818109242
:10360000E9008091F00088608093F000CD2BCF70AE
:10361000C093E900FF91EF91DF91CF91BF91AF91FE
:103620009F918F917F916F915F914F913F912F91DA
:103630000F900FBE0F901F9018950E94F9172FEF53
:1036400084E39CE0215080409040E1F700C00000FE
:1036500088E19CE00FB6F894A895809360000FBEB7
:1036600090936000FFCF662309F45DC08D3C41F468
:103670000E94030C81958093F6030E94D21708954F
:103680008E3C19F40E94030CF6CF8F3C31F40E945B
:10369000030C81958093F503F0CF803D19F40E94CF
:1036A000030CF8CF893D29F40E94E10B8093F703C6
:1036B000E4CF8A3D21F40E94E10B8195F7CF8B3D49
:1036C00031F40E94E10B81958093F803D6CF8C3DB5
:1036D00019F40E94E10BF8CF9FE2980F983070F434
:1036E000815D990B21E030E001C0220F8A95EAF755
:1036F0008091F403822B8093F403BFCF8D3D31F48E
:103700008091EE0381608093EE03B7CF8E3D21F46C
:103710008091EE038260F7CF8F3D09F0AECF8091AC
:10372000EE038460F0CF4091F5038D3C59F4809115
:10373000F60387FF0DC01092F60341110BC01092E3
:10374000EC0308C08E3C81F48091F60318169CF3BC
:10375000442381F08091F7039091F803892B09F0BD
:103760008CCF1092ED0389CF8F3C49F447FFF0CF07
:103770001092F5038091F6038111ECCFE0CF803DEC
:1037800019F41416ACF3E4CF9091F703893D29F4B2
:103790001916F4F61092F703DBCF8A3D19F497FF60
:1037A000D7CFF8CF9091F8038B3D29F497FFD0CF76
:1037B0001092F803CDCF8C3D19F41916CCF3C8CF75
:1037C0009FE2980F983090F4815D990B21E030E0F2
:1037D000B90102C0660F771F8A95E2F7CB01809589
:1037E0009091F40389238093F403B2CF8D3D31F49B
:1037F0008091EE038E7F8093EE03AACF8E3D21F45D
:103800008091EE038D7FF7CF8F3D09F0A1CF80919E
:10381000EE038B7FF0CF882399F19CEF980F913ABC
:1038200040F4682F80EC92E00E94A0090E94571497
:10383000089590E2980F983050F4877091E001C09D
:10384000990F8A95EAF7892F0E94670EEFCF9BE5C3
:10385000980F933028F490E080E00E94240A0895A5
:1038600098E5980F9B3128F490E080E00E94FF09D2
:10387000089593E3980F933118F460E00E94331B8E
:103880000895CF93C82F8823D1F18CEF8C0F813A04
:10389000C0F580914201882311F18091E00487FFF7
:1038A0001EC0EC2FE695E695E695F0E0E054FD4F5E
:1038B000828190E04C2F477021E030E002C0220F5F
:1038C000331F4A95E2F782239323892B89F06C2FCB
:1038D00080EC92E00E94A0090E94571409C0E2EC1B
:1038E000F2E08191C81799F382E0E83CF807C9F744
:1038F0006C2F80EC92E00E94CA090E945714CF916D
:10390000089580E28C0F883068F4C77021E030E0C1
:1039100001C0220FCA95EAF780915B03822B809346
:103920005B03EBCFEBE5EC0FE33040F4F0E0E65B5C
:10393000FE4F808190E00E94240AE1CFE8E5EC0F81
:10394000EB3150F4F0E0EE0FFF1FE35BFE4F8081A0
:1039500091810E94FF09D3CF83E38C0F833178F6E6
:1039600061E08C2F0E94331BCACF1F93CF93DF934C
:10397000182FEB010E94411C209739F4812F0E94DF
:103980000B1CDF91CF911F9108958FE99FE0019764
:10399000F1F700C000002197EFCF0F931F93CF9353
:1039A000DF93C62FD42F022FFC0182818823A9F038
:1039B000609317050E94C61790931605809315050E
:1039C000C77081E001C0880FCA95EAF70E94B3145E
:1039D000DF91CF911F910F91089580911705681382
:1039E00034C080911505909116050E94B717883C48
:1039F000910558F510E21D0FCD17B9F080E28C0F3C
:103A0000883040F4C77081E001C0880FCA95EAF79A
:103A10000E94AC14183048F481E09D2F977001C0CB
:103A2000880F9A95EAF70E94B31470E060E0802F47
:103A30000E94B51C183060F6D77081E001C0880F75
:103A4000DA95EAF70E94AC14C3CFC77081E001C0D9
:103A5000880FCA95EAF7F6CF81110CC070E0662393
:103A600031F060E089EA0E94B51C81E0089560E0D1
:103A70008AEAF9CF8130C9F770E0662319F060E077
:103A80008EE4F1CF60E08BE4EECFA1E0B0E0EBE4B8
:103A9000FDE10C94F52DEE24E394F12C04E813E001
:103AA0009E012F5F3F4F45E753E063E082E00E94B5
:103AB0008A15C82E882339F100E080E01DC0D0901F
:103AC0009A03D00E2D2D30E0A90144545C4F7A01A9
:103AD000E1E0F0E0EC0FFD1FE00FF11D1081FA01B5
:103AE0009081191BB12E1B149CF0912F17FD90E0B3
:103AF000191B111118C00F5F909199030917F8F263
:103B000081110E945E0E8C2D2196E9E00C94112EFD
:103B1000BA94F70180818F5F808360E08D2D0E94D1
:103B20002C1D8C2DE0CF1F5FF70180818150808399
:103B300061E08D2D0E942C1D8C2DDBCFA5E0B0E027
:103B4000E4EAFDE10C94F22D7C01FC018381948177
:103B5000892B31F08081918189238F3F09F0EBC35C
:103B60002596ECE00C940E2E0E94980E182F682FCC
:103B700089819A810E940C0F69817A81812F0E942C
:103B8000210D8C01FC01E851FC47E730F10588F577
:103B9000E754F14D0C94372E26E241EE61EEC70159
:103BA0000E94CD1C809139038770D1F2F701828188
:103BB0008823B1F28091E10482FFD2CF82E00E949B
:103BC000590FCECF27E245EE65EEE9CF26E241EE72
:103BD00060EEE5CF27E245EE64EEE1CF26E241EE6E
:103BE00062EEDDCF27E245EE66EED9CF28E241E076
:103BF000EBCFF7018281882309F4C4C31092170523
:103C0000C8019057839708F0A7C384E090E00E9412
:103C10006B2E9093E1048093E004F801E150F047AB
:103C2000E232F10520F4E054F14D0C94372E8091EE
:103C3000E00481608093E00495C08091E104886095
:103C40008093E1048FC08091E0048260F3CF809183
:103C5000E0048460EFCF8091E0048860EBCF809136
:103C6000E1048160EDCF8091E1048260E9CF809131
:103C7000E0048061DFCF8091E0048062DBCF80913F
:103C8000E0048064D7CF0E94F9178091E004806837
:103C9000D1CF8091E0048C60CDCF8091E10483602E
:103CA000CFCF8091E0048E7FC5CF8091E104877FE4
:103CB000C7CF8091E0048D7FBDCF8091E0048B7FE2
:103CC000B9CF8091E004877FB5CF8091E1048E7FEA
:103CD000B7CF8091E1048D7FB3CF8091E0048F7ED8
:103CE000A9CF8091E0048F7DA5CF8091E0048F7BE8
:103CF000A1CF0E94F9178091E0048F779BCF80912C
:103D0000E004837F97CF8091E1048C7F99CF8091ED
:103D1000E00482FB992790F921E0922790FB82F939
:103D200090FB83F987CF8091E104982F9095917053
:103D30008E7F892B90FB81F983CF9091E004892FAE
:103D40008F7B96FF806476CF0E94F9179091E004F4
:103D5000892F97FB87F980586DCF61E08EE090E066
:103D60000E94812E6091E0047091E10484E090E073
:103D70000E949F2E0E94F91715CF60E0EFCF90911F
:103D8000E004892F8F7E94FF806154CF9091E004EE
:103D9000892F8E7F90FF81604DCF9091E104892F14
:103DA000877F93FF88604CCF8091190591E0892728
:103DB00080931905109246018091180581608093C7
:103DC0001805F0CE49EC5AE063ED7AE00E945F0AF4
:103DD000E9CE43ED5AE069EC7AE0F8CF45EB5AE0E2
:103DE0006FEB7AE0F3CF4FEB5AE065EB7AE0EECF82
:103DF0004BE95AE068EA7AE0E9CF48EA5AE06BE931
:103E00007AE0E4CF41E85AE06EE87AE0DFCF4EE8AE
:103E10005AE061E87AE0DACF45E65AE063E77AE013
:103E2000D5CF43E75AE065E67AE0D0CF81E00E9443
:103E30000B08B8CE85E0FBCF0E94F917FFEF24E313
:103E40003CE0F15020403040E1F700C000000E940B
:103E50008E106FEF7FEF90E080E00E949F2E0E9417
:103E60001D1B8091E10482FB882780F991E089275E
:103E70000E94BD14F701828100811181882309F419
:103E800049C0C8010E94980ED82E682FC8010E9410
:103E90000C0FB8018D2D0E94210D0E94400D8C0148
:103EA000882EF701A280958092943FE09322809122
:103EB00039038770F1F0CA2CAA20E1F0812F807FAE
:103EC000803451F080E2800F883098F0911004C067
:103ED000812F807E803269F08091E10482FF09C0E9
:103EE00082E00E94590F809139038770CC24C394DB
:103EF0008111C12CB12EB2942FE0B222FBE0FB1550
:103F000008F474C0EB2DF0E0EE51F14D0C94372E17
:103F100080E0AECFC8010E94D90ED82EBACF212F93
:103F20002F70D22E107F19F0D29490EFD922AA20B0
:103F3000B9F0DD2069F080E2800F883010F0811048
:103F400009C080915B03D82AD0925B030E9457146A
:103F5000802F4AC080915A03D82AD0925A03F6CFB4
:103F6000802F0E940B1CDD2009F440C0005E083049
:103F700010F0811004C08D2D0E94670E06C0D094F1
:103F800080915A03D822D0925A030E9457142EC00F
:103F9000312F3F70D32E107F103219F0D29480EF62
:103FA000D822882089F081E0881609F47CC0AA20F4
:103FB00009F486C0992009F47CC0F701858180FF4F
:103FC000C7CF8F70858375C02091E10422FD43C067
:103FD000AA20D9F1DD2039F080915B03D82AD09254
:103FE0005B030E94571480E00E94411CEB2DE850B7
:103FF000FF0B349710F40E942F11CC20A9F0809170
:10400000390380FD11C0F70112828595859585954C
:104010000E94750FC7010E949E1D809139038595EE
:10402000859585950E94470F85E0F701DE01119681
:1040300001900D928A95E1F709811A81C8010E94C9
:10404000D90EB8010E94210D8BCD80E00E940B1C7F
:10405000DD2061F290CFAA20A1F090915C038D2D1C
:10406000892B911003C00E94B314C0CFE1E09E12CF
:10407000FACF22FFBBCF981709F4B8CF80935C0327
:10408000B5CF911006C00E94610E8D2D0E94AC1418
:10409000ADCFF1E09F1609F4A9CF8D2D0E94AC148D
:1040A0000E94610EA3CFAA2031F025E0291508F463
:1040B0009DCF8D2DD8CF34E0391508F497CFE5CFBB
:1040C000992019F3F9E38F122FC12FEF37EE83E018
:1040D000215030408040E1F700C0000025C1812F11
:1040E00086958695837061F0813009F07FCFC80195
:1040F0009370A11002C080E090E00E94FF0976CF8B
:10410000C8019370A11002C080E090E00E94240AD0
:104110006DCF6A2D802F0E94331B68CF812F837053
:1041200009F03FC0A11062CF402F429546954770DD
:10413000440F440F802F8F7090E0042E02C0880F30
:10414000991F0A94E2F730E020E004FF09C02FE055
:1041500030E002C0220F331F4A95E2F720953095D8
:10416000169516951370123099F078F440915D030E
:1041700050915E03113039F0822B932B84239523C9
:104180000E94850F33CF842B952B822B932BF8CF56
:10419000822B932B20915D0330915E03822793271E
:1041A000EFCF8695AA2011F0812F8170882309F422
:1041B0001DCF402F429546954770440F440F802FE6
:1041C0008F7090E0042E02C0880F991F0A94E2F7C6
:1041D00030E020E004FF09C02FE030E002C0220FF1
:1041E000331F4A95E2F72095309516951695137072
:1041F000123099F078F44091C5035091C603113004
:1042000039F0822B932B842395230E94420FEECE0C
:10421000842B952B822B932BF8CF822B932B2091E1
:10422000C5033091C60382279327EFCF1F70AA20C2
:1042300029F0812F0E94750F802F15CF802F0E94AB
:10424000AC14812F0E94470FD1CE802F92EF891698
:1042500099F1981570F0E0EF8E16D1F0F1EF8F160E
:1042600091F0AA2009F45BC0911072CE812F8F715A
:1042700027C023EF821639F134EF8312F2CF8091F9
:10428000E10482FD2EC0812F8F71AA20D9F218C0BF
:10429000AA2069F084E0891508F4A8CE1F7181E096
:1042A00090E002C0880F991F1A95E2F7B8CF95E009
:1042B000991508F49BCEF2CF812F8F71A110C2CF38
:1042C0000E94750F93CE90E080E0AA2009F49DCF64
:1042D0001F7181E090E002C0880F991F1A95E2F7E4
:1042E00094CFAA2089F01F71812F0E94750F8091B1
:1042F000E10482FF07C0E8E01E9FC0011124836033
:1043000080933903812FDCCF81E00E94590FF1E0C7
:10431000F91508F06BCE82E00E94590F67CE992004
:1043200039F0893309F4D1CE802F0E940B1C5ECE68
:10433000812F8F7187CF85E0DE01119601900D925C
:104340008A95E1F7F701228189819A8121110CCCAC
:104350000E94D90E182F10CC0631FCE71F0701F57B
:1043600080915B038A7A91E009F490E09093E002F7
:1043700069E2811165E380EC92E00E94CA090E9423
:10438000571410CC06312CE7120751F58091E0024A
:1043900069E2811165E380EC92E00E94A009EFCF11
:1043A00003303CE7130709F454CD50F401159CE7A2
:1043B000190709F441CD01301C4709F450CD5ACDFD
:1043C0000B35FCE71F0709F4A3CD0C352CE71207CA
:1043D00009F447CD0A351C4709F04CCD81E048CDA2
:1043E00080915B038272F801E052F847E531F105F4
:1043F00008F040CDE251F14D0C94372E1F93CF932E
:10440000DF9380910603807F09F04BC08091030306
:10441000882309F446C080913803C0910703409176
:104420000103509102036091040370910503D42F9E
:10443000D52316E0C817A9F190E061157105A9F11F
:10444000DF3F99F1189FF001199FF00D1124DF0152
:10445000A85FBC4F11962C911197251326C02C9163
:10446000241323C012962C91129721111EC013966B
:104470002D913C91261B370B283C3105B0F48091DF
:1044800006038F70806180930603E35FFC4F808199
:104490008F708061808381E093E00E949E1D0E9466
:1044A0008E0EDF91CF911F91089501968770C2CF34
:1044B000A1E1B0E0EEE5F2E20C94F22D8C0185E092
:1044C000F801DE011D9601900D928A95E1F7F80141
:1044D000E28081E0882E83E0982E40910403509181
:1044E00005034115510509F430C190910103209154
:1044F0000203892F82238F3F09F427C1D080C18016
:10450000A380B480F0900303B501641B750BFF20FA
:1045100009F4E7C080910603382F307F683C7105AD
:1045200008F0ABC0311178C0FE2C2C1114C09D11C5
:1045300012C0E11010C08F70806180930603C40127
:104540000E949E1D80910603F80185838F2D619640
:10455000ECE00C940E2EA114B104C9F18D2D8C2128
:104560008F3FA9F181E08E2580FF05C04E2D6C2D77
:104570008D2D0E946E0EA114B10459F18D2D8C2148
:104580008F3F39F181E08E25F82FF170BF2E80FF2B
:1045900039C04E2D6C2D8D2D0E946E0EA82E8111CE
:1045A00031C0DD86CE868D859E850E94CC0E292F5A
:1045B00022952F70243078F49F702230A8F0992330
:1045C000B9F0F8019581907F99F4FA2CBFCF80E083
:1045D000CBCF80E0D9CF2A5F2F70223068F0C8019E
:1045E0000E949E1DAB2CF1CF992311F0882369F313
:1045F000805E883050F3F3CF803F38F3815F8330A3
:1046000070F7E3CFEE2009F4A1CF8091060381601B
:1046100080930603F12C9ACF2C1105C09D1103C085
:10462000EE2009F477C0C8010E948A0F882309F19F
:10463000EE20F9F080910603803270F020910103A2
:104640003091020338872F831986BB86AA868C8710
:10465000CE0107960E949E1D86E0F801A1E0B3E01E
:1046600001900D928A95E1F70E94FE21FF24F394B8
:104670006DCFC8010E949E1DF9CF31110AC081E0A3
:1046800093E00E949E1D86E0F40111928A95E9F75D
:10469000C1CF2C110EC09D110CC0E1100AC0858342
:1046A000C8010E949E1D86E0F40111928A95E9F7E7
:1046B0004DCFC8010E948A0F8823D9F2EE20C9F29B
:1046C00080910603803240F2209101033091020371
:1046D0003A8329831B82BD82AC828E83CE010196F0
:1046E000B9CF683C7105F8F6FE2CEE2011F22C11C2
:1046F0001EC09D111CC08091060380FD0FC0982F25
:10470000907F61F08583903F31F0982F907F905F8C
:104710008F70892B8583C8010E949E1D86E0F80159
:10472000A1E0B3E001900D928A95E1F70FCFC801A7
:104730000E948A0F811190CF80910603816080933F
:104740000603C8010E949E1D01CFEE2009F491CFFF
:10475000C8010E948A0FF82E882309F48ACF86E0C8
:10476000F801A1E0B3E001900D928A95E1F7809104
:104770000103909102030E94CC0E0E94FE21E6CE1E
:10478000A7E1B0E0E6ECF3E20C94FB2D4B8B5C8BE5
:104790006D8B7E8B8F8B611110925A031A8A198A46
:1047A00085E0FE017396DE011D9601900D928A95BB
:1047B000E1F786E0FE013D96DE01179601900D922D
:1047C0008A95E1F7CE0107960E945822811112C006
:1047D00086E0FE013796DE01119601900D928A95D2
:1047E000E1F78A859B85892B29F088859F8189231C
:1047F0008F3F81F516E0809138039091070389136C
:1048000017C06796E3E00C94172E96E0929FD001B4
:10481000939FB00D1124A85FBC4FFE01319601900B
:104820000D929A95E1F7809307030E948E0EE2CFD6
:10483000819FC0011124885F9C4F0E9458228823C9
:1048400001F38091380390E0019687709927809357
:104850003803D1CF2091070330E0C901019687705A
:104860009927409138034817190679F60E94F917DD
:10487000109207031092380386E0E1E0F3E0DF01D5
:104880001D928A95E9F7B6CFAFE0B0E0EAE4F4E232
:104890000C94F12D8E010F5F1F4F8AE0D8011D92FD
:1048A0008A95E9F785E8C82E81E0D82EF12CE12C15
:1048B000AA24A394B12C20E9822E21E0922EF601A5
:1048C00081916F018F3F09F442C0F894E82FE2957F
:1048D000EF70F0E021A18F70A50102C0440F551FB9
:1048E0008A95E2F7CA01922F982B91A392A1809505
:1048F000892382A3789400C0EAE8F1E0712C31E0CA
:1049000021912F3F09F46BC0A22FA295AF70B0E0A8
:1049100090968C9190E02F7002C0959587952A957E
:10492000E2F780FD5CC0832F782A330F8E169F0636
:1049300039F7F601319780818F3F11F00E94250CE5
:1049400050EA5A95F1F7F801EE0DFF1D70828FEFD6
:10495000E81AF80A95E0E916F10409F0B0CF4AE048
:1049600050E0B8018BE993E00E943D2E009741F0A2
:104970002AE0F801ABE9B3E001900D922A95E1F746
:104980000091A603892B69F181E0809363030E9463
:10499000C6179093620380936103809161039091A5
:1049A00062030E94B717059700F110E009551C4FEC
:1049B00045E050E06BE973E0C8010E943D2ED12C28
:1049C000892B51F085E0EBE9F3E0D80101900D92DD
:1049D0008A95E1F7DD24D3941092630307C080E049
:1049E000A3CF809163038111D8CFD12C0E940C11E9
:1049F000C82EE091A603DE011B967D01882309F4F1
:104A00007AC085E01D928A95E9F70E2F10E00955CE
:104A10001C4F809194038A30D8F54FE256E1B701DC
:104A2000C8010E94D910882309F454C045E45DE10F
:104A3000B701C8010E94D910882309F44BC044E390
:104A400055E1B701C8010E94D910882309F442C07A
:104A500044ED54E1B701C8010E94D9108823D1F177
:104A6000109294038091A50390E045E050E0B701D7
:104A700089559C4F0E943D2E21E020936A03892B8B
:104A8000E1F4C12C8C2D8D292F96EDE00C940D2E88
:104A900080916403909165030E94B717843F914011
:104AA00008F0BBCF80916A03882359F385E0F701B2
:104AB00011928A95E9F710926A03A091A503B0E0DC
:104AC000A955BC4F85E0FE013B9601900D928A9559
:104AD000E1F7D8CF809194038F3F31F08F5F8093BF
:104AE00094038A3008F4BECF0E94C61790936503E2
:104AF00080936403D7CFF0E0E955FC4F85E0AEE743
:104B0000B3E001900D928A95E1F765E070E08EE7E1
:104B100093E00E94490A80937D034091C10350E0D5
:104B20006091C00370E064547C4FC7010E944A2E1C
:104B30008B858093840361E070E0C7010E94490A7D
:104B4000809383038090850390908603A0908703D1
:104B5000B09088038091660390916703A0916803E9
:104B6000B091690388169906AA06BB06D1F0809217
:104B7000660390926703A0926803B09269030E9453
:104B80000C1181110EC00E949409861A970AA80A76
:104B9000B90A8092950390929603A0929703B092DF
:104BA000980386E0E9E8F3E0A9E1B5E08ECFA5E05F
:104BB000B0E0EDEDF5E20C94FA2D0E94C6178C01E1
:104BC00080915F039091600380179107A1F08FEFB0
:104BD00089838A831B820E94C6178160782F9D83F8
:104BE0008C8349815A816B818D810E94C0231093EF
:104BF000600300935F032596E4E00C94162E1F9249
:104C00001FB61F9211248F939F93AF93BF938091F0
:104C1000DB04811113C08091DC049091DD04A0912C
:104C2000DE04B091DF044196A11DB11D8093DC0428
:104C30009093DD04A093DE04B093DF04BF91AF91A5
:104C40009F918F911F901FBE1F901895CDB7DEB713
:104C50002D970FB6F894DEBF0FBECDBF85B7806825
:104C600085BF85B7806885BF84B7877F84BF0FB64F
:104C7000F894A895809160008861809360001092FC
:104C800060000FBE80E890E00FB6F894809361005A
:104C9000909361000FBE83E29CE09093BF028093EB
:104CA000BE020E9437080E94D8088091E20084600A
:104CB0008093E2007894809107058823A1F01091F9
:104CC000E9001F709091EC00892F817090FD80E8C1
:104CD000182B1092E9008091E80083FD0E942818AB
:104CE0001F701093E90082E084BD93E095BD9AEFB8
:104CF00097BD80936E0010929503109296031092C8
:104D00009703109298030E940C11809330010E9427
:104D10000C1181110E94762C9091300181E098272E
:104D20009093C003282F291B20939A039091300160
:104D30008093C103909130018093990384988C9A59
:104D400085988D9A8FE891E00197F1F700C00000F7
:104D50002091C10342EC53E0FA018E2F841B82178D
:104D600008F468C0809130018091300195E0811194
:104D700090E09093A60385E0891B8093A50305E846
:104D800011E08AE8E82E81E0F82ED8018D918D019E
:104D90008F3F11F00E94250CE016F106B1F70AE8EA
:104DA00011E0F80181918F018F3F11F00E94250CD5
:104DB000F1E000391F07A9F78AE0E7EAF3E0DF0135
:104DC000282F1D922A95E9F7EBE9F3E0DF011D9208
:104DD0008A95E9F790E080E00E946B2E873E9E4F17
:104DE00011F00E945B1682E090E00E94632E809397
:104DF000B10384E090E00E946B2E9093E1048093D5
:104E0000E0040E944424EFEFF6E721E0E150F04097
:104E10002040E1F700C000000E9444248091A703D5
:104E200080FF13C06FEF7FEF90E080E00E949F2E25
:104E30000E948E108FB1829581707D9904C090E0A0
:104E4000892B81938ACF92E0FBCF83E090E00E9490
:104E5000632E90E00E94850F90E080E00E946B2E10
:104E6000873E9E4F21F00E945B160E943C1481E019
:104E70008093180546E050E06CE170E089E195E030
:104E80000E94532E10921805809119058C7F11F401
:104E90000E943C140E940C118111B0C082E08093EA
:104EA000E70380E88093C4030E94302B6DE070E03C
:104EB0008FE992E00E94B40F892BE9F58091E70316
:104EC00063E070E081FD9CC08CE992E00E94B40F29
:104ED000892B89F56DE070E08CE892E00E94B40FB8
:104EE000892B49F50E949409605A75418F4F9F4F55
:104EF0006093CF047093D0048093D1049093D20434
:104F0000E1E2F5E080E092E0DF019C011D9221509A
:104F10003040E1F7F0932207E09321078FEF9FEFF6
:104F20009093200580931F0581E08093D4048093A3
:104F3000D3041092E8030E940C11811102C00E9458
:104F4000792C81E391E09093D8048093D704B0E466
:104F50006B2E8091070500E112E1853009F48EC0C7
:104F60000E944424F2EBEF2EF3E0FF2EA7EACA2EB4
:104F7000A3E0DA2ED601F70191918D9123E0EC3B6D
:104F8000F20709F485C09817B9F30E940C11882E16
:104F900010E0D6010D916D01F70191907F019016FF
:104FA00029F1B12CAA24A3949026892D8A21B1F04D
:104FB0008820A1F0BF82188791E0802F8A2109F410
:104FC00090E099870E94C6178160782F9B878A8717
:104FD0004F81588569858B850E94C023B394AA0CA4
:104FE000F6E0BF12E2CFF701319700831F5F1A305E
:104FF00081F60E949409EE24E3944FC080E04FCFE5
:1050000089E992E063CF80910705843039F10E94ED
:10501000EA110E94DE0F1092DB0488E190E00FB6E7
:10502000F894A895809360000FBE6092600083B7EB
:10503000817F846083BF83B7816083BF78948895C4
:1050400083B78E7F83BF0FB6F894A89580916000D8
:10505000886180936000109260000FBE8091060509
:10506000882361F00E944424E7EAF3E081918111F2
:10507000D7C2A1EBB3E0AE17BF07C1F78091070518
:10508000853009F4C0CF0E94F9170E942F1168CF14
:1050900098137BCF0E94D725E12C0E940C110E940F
:1050A000EA11C12CF12C8091C103C81608F455C136
:1050B000F1100E945E0E8091D404882309F46BC025
:1050C0008091E9039091EA030E94B717C29708F410
:1050D00042C00E94C6179093EA038093E90381E2DD
:1050E00095E090932207809321070E940C1188235A
:1050F00009F4A4C12091C5033091C603832F9927D9
:10510000009709F48BC19C0188E0A90174E05695D1
:1051100047957A95E1F74115510511F08C5F9A0199
:10512000A90156954795569547954115510511F09A
:105130008E5F9A0136952795232B09F08F5F81307A
:1051400009F473C1882309F46BC1823009F470C17A
:10515000833009F470C180911F0590912005892B3F
:1051600009F06FC18091D3048823A9F00E949409AB
:105170000091CF041091D0042091D1043091D20439
:10518000601B710B820B930B6F3F7F4F8F4F9F47BD
:1051900010F40E94DE0FE11001C0F1100E94F90F1F
:1051A00086E0E3EFF3E0DE01119601900D928A951F
:1051B000E1F71092F5031092F6031092F7031092A4
:1051C000F8038B819C81892B09F44AC08091F103FB
:1051D0009091F2030E94B7179C019091EC039923E0
:1051E00009F439C225313105D8F19F3F19F09F5F8D
:1051F0009093EC031B81112359F00E94030C9FEF45
:1052000011160CF491E0899F802D11248093F503F1
:105210001C81112359F00E94030C9FEF11160CF40E
:1052200091E0899F802D11248093F6033091F5033E
:105230003323B1F02091F603222391F045EB3403A0
:10524000C0011124992309F4DBC19093F50345EBC8
:10525000240390011124332309F4D6C13093F603BB
:105260008D819E81892B09F44AC08091EF03909132
:10527000F0030E94B7179C019091ED03992309F464
:10528000E5C121353105D8F19F3F19F09F5F90931B
:10529000ED031D81112359F00E94E10B9FEF1116C0
:1052A0000CF491E0899F802D11248093F7031E81D7
:1052B000112359F00E94E10B9FEF11160CF491E0BD
:1052C000899F802D11248093F8033091F7033323B5
:1052D000B1F02091F803222391F045EB3403C00193
:1052E0001124992309F494C19093F70345EB240307
:1052F00090011124332309F48FC13093F80346E061
:1053000050E0BE016F5F7F4F83EF93E00E943D2E20
:10531000892B61F48091F5039091F603892B90918C
:10532000F703892B9091F803892B11F00E94D21773
:1053300086E0FE013196A3EFB3E001900D928A95CD
:10534000E1F70E942F119091EB03891709F401CE28
:105350008093EB030E949409FCCD0C2D10E0EFB17B
:10536000E295E1707D9952C080E08E2BD801AE535A
:10537000BC4FEC919E2F9370891709F445C0EE0F36
:10538000EE0FE82BEC93D090C003DC0CEF70F0E054
:10539000E057FE4F02541C4F8081D8019C91890F29
:1053A0008C93B12C843084F0ED2DF0E0E454FC4F6C
:1053B00080818F5F80830E940C11B82E882341F179
:1053C00060E08D2D0E942C1DF80180818D3F84F4BA
:1053D000ED2DF0E0E454FC4F8081815080830E94E9
:1053E0000C11B82E8823B9F061E08D2D0E942C1D80
:1053F000D8018C91082E000C990B64E070E00E949B
:10540000232EF8018083FB28C3944DCE82E0ADCFDC
:10541000BB24B394D9CFBB24B394EACF80E075CE3C
:105420008CEA92E00E94C90796CE8CEA94E0FACF0B
:105430008CEA96E0F7CF8CEA98E0F4CF8CEA9AE019
:10544000F1CF8091D404882309F48CCE8091E803B5
:10545000811188CE0E94F90F20911F0530912005FF
:105460002115310509F47ECE80E041E050E0082F9F
:1054700010E02A01082E02C0440C551C0A94E2F7E1
:10548000B20162237323672B11F48F5FF0CF9091E9
:10549000E70390FF9CC0880F880F880F80933B0123
:1054A00010923E01895F80933C0183E080933F012D
:1054B00024E630E047E050E069E371E088E70E94CD
:1054C000D02B892B09F04ECEA80195E0440F551F33
:1054D0009A95E1F78091E70380FF8BC0E7ECF3E05A
:1054E00080E2DF011D928A95E9F7E4EAF1E0FD87A9
:1054F000EC8700EA11E087E0A82E99249394AC850C
:10550000BD852D91BD87AC87F80121908F01240EB8
:10551000352E311CC1018F5D9A4F1C01E22FF0E046
:10552000E953FC4F30E020E07A2C721AB92C022E9D
:1055300001C0BB0C0A94EAF7610190E0D6018D919D
:105540006D018B21672D691B6770862E062E000C5E
:10555000770BB82F01C0BB0F8A94EAF78B2E719599
:10556000619571096770772701C086956A95EAF79A
:10557000882A8081882A80829F5F9830F9F62F5F81
:105580003F4F31962830310579F6E8EAF1E02C8575
:105590003D85E217F30709F0B2CF04E610E020E200
:1055A00030E047EC53E060E488E70E94F12B892B60
:1055B00009F0D8CD4094509480911F05909120051A
:1055C000482259225092200540921F05CBCD82954A
:1055D000880F807680933B01980136952795369504
:1055E000279520933E01815E80933C0110923F01FC
:1055F0005FCF4F5D5A4F04E610E020E230E0D3CF9A
:1056000081E08093F50323CE81E08093F60328CEDA
:1056100081E08093F7036ACE81E08093F8036FCE38
:1056200009BD19BD09B400FEFDCF8091D8008F7D62
:105630008093D8008091E00082608093E0008091A8
:10564000E00081FDFCCF0E94F91718CD2B30310509
:1056500008F01CCE54CE2B30310508F0C8CD00CE5A
:105660001092B9008CE08093B8000895B0E0A0E0FB
:10567000ECE3FBE20C94F32DB82EEB010E94C6176D
:105680006C01EE24E394F12CC431D10560F025E0E7
:10569000E22EF12CCF3FDC0731F0CE0164E170E067
:1056A0000E94D82D7B0184EAA82E94E8992E1092AE
:1056B000BC00A092BC000E94C6178C018091BC0067
:1056C00087FF0DC08091B900887F8830F9F0809104
:1056D000B900887F8031D1F00FEF1FEF08C0C801FB
:1056E0000E94B717E816F90648F70EEF1FEFCF3FF5
:1056F000DC07E9F2C6010E94B717C817D907B8F648
:10570000C801CDB7DEB7EBE00C940F2EB092BB0012
:105710009092BC000E94C6178C018091BC0087FF4C
:105720000AC08091B900887F883111F08034A1F6D9
:1057300010E000E0E5CFC8010E94B717E816F906AF
:1057400060F7D3CF0F931F93CF93DF93EB01809339
:10575000BB0084E88093BC000E94C6178C01809136
:10576000BC0087FF11C02091B900287F81E090E044
:10577000283211F490E080E0919581959109DF91B4
:10578000CF911F910F910895CF3FDC0741F3C801DE
:105790000E94B717C817D90710F78EEF9FEFEFCF0A
:1057A000B0E0A0E0E6EDFBE20C94F62D6B018A017F
:1057B0007901B9010E94362BE6010C0D1D1DC017A1
:1057C000D10711F097FF08C024E92093BC00CDB7A2
:1057D000DEB7E8E00C94122EB70189910E94A22B4B
:1057E000EECFB0E0A0E0E7EFFBE20C94F62DC62F81
:1057F0006A017901B8010E94362B97FD0CC0B801EF
:105800008C2F0E94A22BE601EC0CFD1CCE15DF05AF
:1058100011F097FF08C024E92093BC00CDB7DEB794
:10582000E8E00C94122EB80189910E94A22BEECFD1
:1058300084E98093BC0008958EE14A9B02C08150A8
:10584000E1F74A9BFECF08955A9880E28A95F1F7D6
:105850005A9A0895FC013BE03A95F1F798E020E070
:1058600080E031E040E14A95F1F7880F4A9B02C0A1
:105870008160232742E04A95F1F7000040E14A9514
:10588000F1F7915079F790E19A95F1F799B132E0FB
:105890003A95F1F7000040E14A95F1F792FB99271C
:1058A00090F992272081920F90830895A1E0B0E0B3
:1058B000ECE5FCE20C94F82D19828C017C01E60EDB
:1058C000F11C0E151F0541F481E09981911180E0D2
:1058D0002196E6E00C94142E0E941C2CCE01019619
:1058E0000E942A2CF80181938F01EBCF529A5A9A89
:1058F000089552985A9AEA9AE9E6F0E080818F7CFE
:10590000808308956150770B91E001C0990F6A95EB
:10591000EAF720E031E0911108C0222391F05A9A71
:1059200080E28A95F1F75A980895492F482339F073
:105930005A9A232740E24A95F1F79695ECCF5A9868
:10594000F9CF5A98EDCFFF920F931F93CF93DF9328
:10595000EC018C01060F111DC017D10729F4CDB73A
:10596000DEB7E5E00C94152EF9900E94242C68E037
:105970008F2D0E94822CF0CF1F920F920FB60F92A4
:1059800011240F931F932F933F934F935F936F9324
:105990007F938F939F93AF93BF93EF93FF93CF9397
:1059A000DF930F92CDB7DEB719820E941C2CCE0177
:1059B00001960E942A2C082F069506950695282FF9
:1059C00022952570902F9570290F922F9370269510
:1059D0002695920F982797708981982B09F05CC0C3
:1059E000073008F059C080E18A95F1F75A9A529A27
:1059F00082E08A95F1F700C05A9888E0089F8001FC
:105A00001124D801A050BF4F1696ED91FC91179725
:105A10003097A9F0609183017091840114962D91C3
:105A20003C911597260F371F11968D919C911297D7
:105A3000680F791F13964C9113978C910995F80173
:105A4000E050FF4F6381662351F020918301309134
:105A5000840184819581820F931F0E94A32C0E9450
:105A6000242C80E18A95F1F75A9852985A9A80E14D
:105A70008A95F1F7F801E050FF4F6081662351F0FD
:105A8000209183013091840181819281820F931F43
:105A90000E94562C0E941C2C0F90DF91CF91FF91F9
:105AA000EF91BF91AF919F918F917F916F915F9196
:105AB0004F913F912F911F910F910F900FBE0F901B
:105AC0001F9018950F931F93CF93DF93EC010797C7
:105AD0000CF04CC0F894529A5A9885E08A95F1F7E8
